:100000000C9459000C9481000C9481000C94810094
:100010000C9481000C9481000C9481000C9481005C
:100020000C9481000C9481000C9481000C9481004C
:100030000C9481000C9481000C9481000C9481003C
:100040000C941A060C9481000C9425050C94570509
:100050000C9481000C9481000C9481000C9481001C
:100060000C9454020C94810000000008000201006E
:100070000003040700000000000000000102040863
:100080001020408001020408102001020408102002
:10009000040404040404040402020202020203032E
:1000A0000303030300000000250028002B00FB01D0
:1000B000870511241FBECFEFD8E0DEBFCDBF11E012
:1000C000A0E0B1E0E2E9FDE002C005900D92A032AF
:1000D000B107D9F722E0A0E2B1E001C01D92AF392B
:1000E000B207E1F710E0C2EBD0E004C02297FE01B6
:1000F0000E94C306CE3AD107C9F70E94CB050C94E3
:10010000C7060C940000DC01ED91FC910190F08198
:10011000E02D099426E040E855E260E070E089EFC8
:1001200091E00E94C30465E070E086E391E00E94E4
:10013000F40166EE70E086E391E00C94F6018091A4
:1001400035018D30B9F089EF91E00E94E003181677
:100150001906ACF789EF91E00E94F903809335010D
:1001600080913301909134010196909334018093F2
:100170003301E5CF10923501809133019091340124
:10018000049738F066E070E089EF91E00E94830008
:1001900018C0809132018823A1F062E070E089EFFD
:1001A00091E00E94830062E271E089EF91E00E9499
:1001B000180663E070E089EF91E00E9483001092DE
:1001C000320110923401109233010895CF93C1E0AF
:1001D00086E391E00E941101892B09F186E391E009
:1001E0000E94190120912001309121018B3361F08F
:1001F000A9014F5F5F4F5093210140932001F90106
:10020000EE5DFE4F8083E4CFF901EE5DFE4F10827C
:10021000C09332011092210110922001D9CFCF91C9
:1002200008958091690190E020916A01821B9109F3
:10023000089520916A0180916901281750F4E22FF6
:10024000F0E0E559FE4F808190E02F5F20936A0136
:1002500008958FEF9FEF0895E0916A018091690101
:10026000E81730F4F0E0E559FE4F808190E0089502
:100270008FEF9FEF08950895E0914201F0914301BF
:100280003097E1F030916A01209169013217B0F0A6
:1002900040E0242F30E02617370754F4DC01A20F8A
:1002A000B31F5C91D901A559BE4F5C934F5FF1CF4D
:1002B00010926A0160936901CB0109940895E0915D
:1002C0004401F0914501309729F0109248011092B5
:1002D000470109940895CF92DF92EF92FF920F9316
:1002E0001F93CF93DF937C01CB018A0120914601BC
:1002F000222389F0EB016B01C40ED51ECC15DD0560
:1003000069F06991D701ED91FC910190F081E02DA8
:10031000C7010995F3CF642F0E942102C801DF9124
:10032000CF911F910F91FF90EF90DF90CF900895A4
:10033000CF93DF931F92CDB7DEB76983209146013B
:100340002223D1F020914701203240F021E030E01B
:10035000FC013383228380E090E015C08091480146
:10036000E82FF0E0E75BFE4F998190838F5F8093E9
:1003700048018093470105C061E0CE0101960E94CB
:10038000210281E090E00F90DF91CF910895FC0170
:100390001382128248EE53E060E070E0448355839C
:1003A0006683778384E091E091838083089510923F
:1003B0006A011092690110924801109247010C9451
:1003C000FF01CF93DF93EC01862F0E941D028FE582
:1003D00091E00E943F028CE391E00E943A02CE013C
:1003E000DF91CF910C94D7010C94E10170934301FC
:1003F00060934201089586E391E00C94C701109246
:10040000F80181E08093F6011092F50161E082E14C
:100410000E94AA0361E083E10E94AA03E9EBF0E0F5
:1004200080818E7F808380818D7F808388E480932C
:10043000B80085E48093BC000895880F8093BA00CB
:100440000895613298F42091F801243089F4609382
:10045000AD01FC018FEA91E0DC012A2F281B261751
:1004600018F421912D93F9CF80E0089581E008954B
:1004700082E008959093F2018093F10108959093A2
:10048000F4018093F301089585ED8093BC00809181
:10049000BC0084FDFCCF1092F801089585EC809398
:1004A000BC001092F80108951F920F920FB60F92A0
:1004B00011242F933F934F935F936F937F938F9369
:1004C0009F93AF93BF93EF93FF938091B900887F81
:1004D000803609F49CC068F5883209F45BC090F45A
:1004E000803109F454C038F4882309F4F5C0883009
:1004F00009F44DC0F5C0883109F44CC0803209F4CC
:100500005DC0EEC0803409F468C048F4803309F45B
:1005100055C0883309F0E4C080938B01A8C08035B2
:1005200009F44FC0883509F45DC0883409F0D8C09B
:10053000D5C0883909F4C6C0A8F4883709F467C063
:1005400038F4883609F463C0803709F460C0C8C045
:10055000883809F4B7C0803909F45FC0803809F0E1
:10056000BFC05BC0803B09F485C038F4803A09F411
:1005700066C0883A09F47EC0B3C0803C09F4A6C0C6
:10058000883C09F4A3C0883B09F489C0A9C08091C4
:10059000F70110C09091D0018091CF01981770F5AC
:1005A000E091D00181E08E0F8093D001F0E0EF5216
:1005B000FE4F80818093BB0085EC85C080938B01CA
:1005C0008DC0E091D00181E08E0F8093D0018091A9
:1005D000BB00F0E0EF52FE4F80839091D0018091FC
:1005E000CF016DC0E091D00181E08E0F8093D001EA
:1005F0008091BB00F0E0EF52FE4F80838091F601C6
:1006000081116CC081E08093F50184EA60C083E0D1
:100610008093F80110928C01CFCF80918C018032B1
:1006200008F050C0E0918C0181E08E0F80938C0126
:100630008091BB00F0E0E357FE4F8083BDCF8091F7
:100640008C01803230F4E0918C01F0E0E357FE4FF2
:1006500010820E94440260918C0170E0E091F101EF
:10066000F091F2018DE891E0099510928C010E94C1
:100670004E0236C084E08093F8011092AE011092D1
:10068000AD01E091F301F091F40109958091AD0184
:10069000811105C081E08093AD011092AF01E0911E
:1006A000AE0181E08E0F8093AE01F0E0E155FE4F88
:1006B00080818093BB009091AE018091AD0198172D
:1006C00008F47ACF85E88093BC000AC085EC80935B
:1006D000BC001092F80104C010928B010E944402E9
:1006E000FF91EF91BF91AF919F918F917F916F910A
:1006F0005F914F913F912F910F900FBE0F901F90E0
:100700001895833081F028F4813099F08230A1F07F
:1007100008958730A9F08830B9F08430D1F4809101
:1007200080008F7D03C0809180008F778093800050
:10073000089584B58F7702C084B58F7D84BD0895F8
:100740008091B0008F7703C08091B0008F7D80933F
:10075000B00008950F931F93CF93DF931F92CDB7EF
:10076000DEB7282F30E0F901E859FF4F8491F901F5
:10077000E458FF4F1491F901E057FF4F0491002313
:10078000C9F0882321F069830E9481036981E02FE9
:10079000F0E0EE0FFF1FEC55FF4FA591B4919FB70E
:1007A000F8948C91611103C01095812301C0812BB5
:1007B0008C939FBF0F90DF91CF911F910F91089560
:1007C000FC01818D228D90E0805C9F4F821B9109FE
:1007D0008F7399270895FC01918D828D981731F0C0
:1007E000828DE80FF11D858D90E008958FEF9FEFCA
:1007F0000895FC01918D828D981761F0828DDF0143
:10080000A80FB11D5D968C91928D9F5F9F73928F03
:1008100090E008958FEF9FEF08958DE795E0892B85
:1008200049F080E090E0892B29F00E947D0581113C
:100830000C9400000895FC01848DDF01A80FB11D08
:10084000A35ABF4F2C91848D90E001968F73992706
:10085000848FA689B7892C93A089B1898C918064F3
:100860008C93938D848D981306C00288F389E02DB4
:1008700080818F7D80830895CF93DF93EC01888DF5
:100880008823C9F0EA89FB89808185FD05C0A88994
:10089000B9898C9186FD0FC00FB607FCF5CF80811A
:1008A00085FFF2CFA889B9898C9185FFEDCFCE0164
:1008B0000E941B04E7CFDF91CF910895CF92DF9282
:1008C000FF920F931F93CF93DF931F92CDB7DEB7A5
:1008D0006C0181E0D60158968C9358975B969C9159
:1008E0005B975C968C915C97981307C05096ED913E
:1008F000FC915197808185FD2EC0F601038D10E09B
:100900000F5F1F4F0F731127F02EF601848DF81221
:1009100011C00FB607FCF9CFD6015096ED91FC91AE
:100920005197808185FFF1CFC60169830E941B0426
:100930006981EBCF838DE80FF11DE35AFF4F608390
:10094000D6015B960C935B975296ED91FC91539771
:10095000808180620CC0D6015696ED91FC9157972C
:1009600060835096ED91FC915197808180648083E3
:1009700081E090E00F90DF91CF911F910F91FF9058
:10098000DF90CF900895BF92CF92DF92EF92FF92C7
:10099000CF93DF93EC016A017B01B22EE889F989DC
:1009A00082E08083411581EE580761057105A1F051
:1009B00060E079E08DE390E0A70196010E949F0638
:1009C0002150310941095109569547953795279589
:1009D000211580E1380798F0E889F989108260E8EC
:1009E00074E88EE190E0A70196010E949F062150D5
:1009F0003109410951095695479537952795EC8559
:100A0000FD853083EE85FF852083188EEC89FD8976
:100A1000B082EA89FB89808180618083EA89FB89D1
:100A2000808188608083EA89FB89808180688083F7
:100A3000EA89FB8980818F7D8083DF91CF91FF9050
:100A4000EF90DF90CF90BF9008951F920F920FB656
:100A50000F9211242F938F939F93EF93FF93E09125
:100A60000902F0910A028081E0910F02F0911002D8
:100A700082FD12C09081809112028F5F8F7320914E
:100A80001302821751F0E0911202F0E0E750FE4F9E
:100A9000958F8093120201C08081FF91EF919F9109
:100AA0008F912F910F900FBE0F901F9018951F924E
:100AB0000F920FB60F9211242F933F934F935F9392
:100AC0006F937F938F939F93AF93BF93EF93FF9316
:100AD00089EF91E00E941B04FF91EF91BF91AF91CC
:100AE0009F918F917F916F915F914F913F912F9146
:100AF0000F900FBE0F901F90189589EF91E00E9404
:100B0000E00321E0892B09F420E0822F0895109260
:100B1000FC011092FB0188EE93E0A0E0B0E080932E
:100B2000FD019093FE01A093FF01B093000284E1C8
:100B300091E09093FA018093F90185EC90E0909315
:100B400006028093050284EC90E090930802809363
:100B5000070280EC90E090930A028093090281ECF6
:100B600090E090930C0280930B0282EC90E09093C3
:100B70000E0280930D0286EC90E090931002809319
:100B80000F0210921202109213021092140210928D
:100B90001502089508950E9464060E94CA050E94E5
:100BA0008A00CDE0D4E00E949F002097E1F30E94EC
:100BB0000D04F9CFCF92DF92EF92FF920F931F9324
:100BC000CF93DF936C017A01EB01E60EF71E00E094
:100BD00010E0CE15DF0561F06991D601ED91FC9131
:100BE0000190F081E02DC6010995080F191FF1CF82
:100BF000C801DF91CF911F910F91FF90EF90DF908F
:100C0000CF9008956115710581F0DB010D900020F2
:100C1000E9F7AD0141505109461B570BDC01ED913D
:100C2000FC910280F381E02D099480E090E008952A
:100C30000C9402061F920F920FB60F9211242F935D
:100C40003F938F939F93AF93BF938091970290911F
:100C50009802A0919902B0919A023091960223E0F5
:100C6000230F2D3720F40196A11DB11D05C026E8E4
:100C7000230F0296A11DB11D209396028093970227
:100C800090939802A0939902B0939A0280919B024C
:100C900090919C02A0919D02B0919E020196A11D8F
:100CA000B11D80939B0290939C02A0939D02B093F0
:100CB0009E02BF91AF919F918F913F912F910F9085
:100CC0000FBE0F901F901895789484B5826084BDF4
:100CD00084B5816084BD85B5826085BD85B5816040
:100CE00085BDEEE6F0E0808181608083E1E8F0E0A0
:100CF0001082808182608083808181608083E0E8CF
:100D0000F0E0808181608083E1EBF0E080818460AD
:100D10008083E0EBF0E0808181608083EAE7F0E0AF
:100D20008081846080838081826080838081816013
:100D300080838081806880831092C1000895A1E241
:100D40001A2EAA1BBB1BFD010DC0AA1FBB1FEE1F45
:100D5000FF1FA217B307E407F50720F0A21BB30B90
:100D6000E40BF50B661F771F881F991F1A9469F70C
:100D700060957095809590959B01AC01BD01CF0168
:100D80000895EE0FFF1F0590F491E02D0994F8945B
:020D9000FFCF93
:100D92000000000098016B01110119012C013B01B7
:100DA200000000005E04DA05E003F903EB033C04F3
:00000001FF
